:020000040800F2
:10000000201B002065020008BF030008B70300089A
:10001000BB030008B10300088504000800000000CD
:1000200000000000000000000000000003040008C1
:10003000B5030008000000000104000805040008E2
:100040007F0200087F0200087F0200087F0200088C
:100050007F0200087F0200087F0200087F0200087C
:100060007F0200087F0200087F0200087F0200086C
:100070007F0200087F0200087F0200087F0200085C
:100080007F0200087F0200087F0200087F0200084C
:100090007F0200087F0200087F0200087F0200083C
:1000A0007F0200087F0200087F0200087F0200082C
:1000B0007F0200087F0200087F0200087F0200081C
:1000C0007F0200087F0200087F0200087F0200080C
:1000D0007F0200087F0200087F0200087F020008FC
:1000E0007F0200087F0200087F0200087F020008EC
:1000F0007F0200087F0200087F0200087F020008DC
:100100007F0200087F0200087F0200087F020008CB
:100110007F0200087F0200087F0200087F020008BB
:100120007F0200087F0200087F0200087F020008AB
:100130007F0200087F0200087F0200087F0200089B
:1001400000000000000000000000000000000000AF
:100150007F0200087F0200087F0200087F0200087B
:100160007F0200087F0200087D0400087F0200086B
:100170007F0200087F0200087F0200087F0200085B
:100180007F02000800F002F800F05CF80AA090E896
:10019000000C82448344AAF10107DA4501D100F042
:1001A00051F8AFF2090EBAE80F0013F0010F18BFB3
:1001B000FB1A43F0010318472C3800004C380000AC
:1001C0000A444FF0000C10F8013B13F0070408BF7D
:1001D00010F8014B1D1108BF10F8015B641E05D01B
:1001E00010F8016B641E01F8016BF9D113F0080FD0
:1001F0001EBF10F8014BAD1C0C1B09D16D1E58BF62
:1002000001F801CBFAD505E014F8016B01F8016B98
:100210006D1EF9D59142D6D370470000002300240B
:1002200000250026103A28BF78C1FBD8520728BF06
:1002300030C148BF0B6070471FB503F0B1FB1FBD55
:1002400010B510BD00F06EF81146FFF7F5FF01F094
:1002500091FA00F0A0F803B4FFF7F2FF03BC00F03E
:100260002FF900000948804709480047FEE7FEE7EC
:10027000FEE7FEE7FEE7FEE7FEE7FEE7FEE7FEE756
:1002800004480549054A064B704700000D04000864
:100290008501000820150020201B002020170020C9
:1002A00020170020704700000FB4044910B503AABE
:1002B000029800F009F810BC5DF814FB040000205F
:1002C0007047704770477047074B70B50D467B44C9
:1002D00000F011F80446284600F020F810B14FF065
:1002E000FF3070BD204670BD1B12000001694A1C22
:1002F00002610878704700B58FB0CDE90131002167
:10030000059105497944CDE903101146684600F08E
:100310002EF80FB000BD0000E5FFFFFF007B00F0EE
:1003200080007047754600F03FF8AE46050069460C
:10033000534620F00700854618B020B5FFF7A0FF10
:10034000BDE820404FF000064FF000074FF00008D6
:100350004FF0000B21F00701AC46ACE8C009ACE857
:10036000C009ACE8C009ACE8C0098D4670472DE96A
:10037000F04106460024D6E90170F5688046304613
:1003800003E04146B847641C3046A8470028F8D12E
:100390002046BDE8F08110B50446AFF3008020464A
:1003A000BDE81040FFF757BF00487047C014002059
:1003B00000BFFEE7704700BFFEE700BFFEE77047E3
:1003C000F0B503460C4603F00701C1F1070004280D
:1003D00001D9042001E0C1F107000646081D0728E5
:1003E00001D2002000E0C81E05460120B040401E9A
:1003F0002040A8400127AF407F1E17403843F0BD82
:100400007047704710B503F033FA10BD1848006804
:1004100040F47000164908601648006820F001009A
:10042000401C1449086000BF12480068C0F3400037
:100430000028F9D00F48406820F003000D494860BB
:1004400000BF0C484068C0F381000028F9D109487A
:1004500000680949084007490860002048600863AF
:100460004FF41F008860C803014980390860704755
:1004700088ED00E000100240FFFFF2FE10B503F02F
:1004800087FA10BD00BFFEE702480068C0F30220F3
:10049000704700000CED00E010B5002804DB0A07EF
:1004A000130E054A135406E00A07140E034A00F01F
:1004B0000F031B1FD45410BD00E400E018ED00E052
:1004C0007047000030B90A4A126822F00202084B55
:1004D0001A6006E0064A126822F00202921C044BDF
:1004E0001A60034A126861F30002014B1A607047F8
:1004F0000458014001490860704700000C58014051
:100500000149086070470000105801400149086027
:10051000704700001458014070B505462E467068BB
:10052000446A41F224002044406841F244012144DD
:10053000486041F224002044806841F24401214493
:10054000886041F2240000592349884217D10121D3
:10055000304602F0BAFD1F2811D141F22400204498
:10056000407B01280BDC41F224002044807B0128E1
:1005700005DB41F224002044807B10280ADD202284
:100580000521284600F09AFB02206070284600F002
:100590009BFB1FE0284600F0AFF818B1284600F09A
:1005A00093FB17E02078012814D02078022811D07E
:1005B000207804280ED0E06920B90021284600F0F8
:1005C00029FB07E0E06928B104F120012846E2692F
:1005D00000F046FB70BD00005553424310B5024683
:1005E0000C4613465868416A0020C86110BD2DE9C9
:1005F000F04107460C46B846D8F80400456A05F1B4
:10060000200605F10C0000EB8402001F00EB8401C2
:10061000204601F0D3F805F1080050F82400401EF0
:10062000000E307005F1080050F82400401E000C48
:10063000707005F1080030F82400401E000AB07008
:1006400005F1080010F82400401EF07005F10C00C0
:1006500050F82400000E307105F10C0050F8240011
:10066000000C707105F10C0030F82400000AB07124
:1006700005F10C0010F82400F0710820E86100205A
:10068000BDE8F0812DE9F04304460D4616461F46AD
:10069000A046D8F80400D0F82490F11909F1080018
:1006A00050F82500814207D921220521204600F07B
:1006B00005FB0120BDE8F0830020FBE72DE9F041B8
:1006C00004460E4627467868456A6878022806D1AF
:1006D0008121384602F082FE002068700AE006F0B0
:1006E0008000802806D16878012803D001212046A7
:1006F00000F090FABDE8F0812DE9F04105460126B1
:100700002F467868446A41F224002044C07B2328A5
:1007100076D00EDC1A282BD006DC00285ED0032809
:1007200053D012286DD111E01B2818D01E287BD180
:1007300030E02A2866D004DC25283DD0282873D153
:1007400031E02F2853D05A286ED11AE041F224000C
:100750002044417B284600F025F906466BE041F233
:1007600024002044417B284600F0D3FA064662E08C
:1007700041F224002044417B284600F05DF9064602
:1007800059E041F224002044417B284600F03CF926
:10079000064650E041F224002044417B2846FFF702
:1007A0001DFF064647E041F224002044417B2846D5
:1007B00000F05AF906463EE041F224002044417B15
:1007C0002846FFF714FF064635E041F22400204496
:1007D000417B284600F0E8F906462CE041F224006F
:1007E0002044417B284600F09DFA064623E041F272
:1007F00024002044417B284600F0ADFA06461AE06A
:1008000009E011E041F224002044417B284600F039
:10081000DEFA06460FE041F224002044417B2846E0
:1008200000F04BF8064606E020220521284600F09D
:1008300045FA012600BF00BF3046BDE8F0812DE932
:10084000F04104460F4626467068456A287801281C
:1008500004D003280CD004280FD108E02046FFF76D
:100860004BFF18B10121204600F0D4F906E000BF8B
:100870000021204600F0CEF900E000BF00BFBDE837
:10088000F0812DE9F04104460F4626467068456A1E
:100890002878022805D007280CD12046FFF73CFE17
:1008A00008E02046FFF728FF18B10121204600F09C
:1008B000B1F900BF00BFBDE8F0812DE9F041074666
:1008C0000D46B846D8F80400466A06F12004002018
:1008D00020706070A0700820E07006F10C0000EB42
:1008E0008502001F00EB8501284600F067FF06F136
:1008F000080050F82500401E000E207106F1080087
:1009000050F82500401E000C607106F1080030F818
:100910002500401E000AA07106F1080010F825000D
:10092000401EE0710220207206F10C0050F82500F4
:10093000000C607206F10C0030F82500000AA0726D
:1009400006F10C0010F82500E0720C20F061002088
:10095000BDE8F08170B505462E467068446A0720F0
:1009600020700020607060600D4941F24400015128
:10097000002041F2440121448860002141F24400FA
:100980000151002041F24401214448601F2341F2FB
:10099000240022180121304602F026F970BD000023
:1009A000555342532DE9F047074688460024A14697
:1009B000BA46DAF80400456A41F224002844007C73
:1009C00000F0010010B10F4E05240FE0404600F08A
:1009D00023FE064641F2240028448068242804D2DD
:1009E00041F224002844846800E02424EC6104E0FF
:1009F000641E315D05F120000155002CF8D14846F8
:100A0000BDE8F0870401002070B502460D460821BC
:100A100014466068436A0820D86106E0481EC1B2E7
:100A20000448465C03F1200046540029F6D100201A
:100A300070BD00002C01002070B502460D46082153
:100A400014466068436A0820D86106E0481EC1B2B7
:100A50000448465C03F1200046540029F6D10020EA
:100A600070BD0000240100202DE9FC5F824689460C
:100A7000D346DBF80400446A41F22400204400F12C
:100A80000F062078072850D141F224002044007B33
:100A900000F08000802807D020220521504600F079
:100AA0000DF90120BDE8FC9FB0780006F17840EA1E
:100AB0000140317940EA012071790843C117C4E946
:100AC0000401307AF17940EA0120A061494650469C
:100AD000A3692269FFF7D6FD08B10120E2E704F11E
:100AE0000C0050F829000022D4E90431A3FB007C5B
:100AF00001FB00C003FB0200C4E9047004F10C0117
:100B000051F82910A0694843A06141F22400204413
:100B10008068A169884206D020220521504600F055
:100B2000CDF80120BEE7012020704FF48050E06135
:100B3000A069B0F5805F01D2A06901E04FF4805058
:100B400085B204F12000CDE90005D4E904733A46EA
:100B5000484600F041FE30B13A220421504600F0F0
:100B6000ADF801209EE7ABB204F120028121584686
:100B700002F074F8D4E90420521940F10000C4E9ED
:100B80000420A069401BA06141F244002044806819
:100B9000401B41F2440121448860A06908B9042047
:100BA000207000207EE70000F0B503460F461222B9
:100BB0001C466068416A01F120050B4E02E0521E9E
:100BC000B05CA854002AFAD141F22400084480689D
:100BD000122805D241F2240008448068C86101E06F
:100BE0001220C8610020F0BD0C01002070B5054640
:100BF0002E467068446A0720207001206070002033
:100C000060601F2341F2240022180121304601F0C8
:100C1000EBFF70BD2DE9F04105460E462F46786882
:100C2000446A41F244002044C6600C4941F2440049
:100C30000151072020700D2341F244002218812128
:100C4000384602F00BF81F2341F22400221801213C
:100C5000384601F0C9FFBDE8F0810000555342530A
:100C60002DE9F04706460F469046B146D9F80400F4
:100C7000446A41F2240020448068404501D940463E
:100C800003E041F224002044806885B241F2440030
:100C900020448068401B41F24401214488600020C8
:100CA00041F244012144C860032020702B463A469B
:100CB0008121484601F0D2FFBDE8F087014B9970D1
:100CC0001A7470470C01002070B505462E467068F6
:100CD000446A41F224002044806850B141F224006B
:100CE0002044007B28B9607818B90121304602F011
:100CF00075FB8121304602F071FB6078022807D134
:100D00001F2341F2240022180121304601F06CFF1C
:100D100070BD10B502460C4613465868416A002063
:100D2000C86110BD2DE9F0410446884600262746DB
:100D30007868456A41F224002844806838B120224E
:100D400005212046FFF7BAFF0120BDE8F081002011
:100D5000E8613046F9E72DE9F04106460F46B04616
:100D6000D8F80400446A41F22400204400F10F0541
:100D700041F224002044007C00F00200022807D148
:100D8000242205213046FFF799FF0120BDE8F081BC
:100D9000A8780006E97840EA0140297940EA012074
:100DA00069790843C117C4E90401287AE97940EA5E
:100DB0000120A06139463046A3692269FFF762FC31
:100DC00008B10120E2E70020E06100BFDEE72DE985
:100DD000FC5F82468946D346DBF80400446A41F250
:100DE0002400204400F10F062078072861D141F249
:100DF00024002044007B00F08000802807D12022BE
:100E000005215046FFF75AFF0120BDE8FC9FB0784E
:100E10000006F17840EA0140317940EA0120717919
:100E20000843C117C4E90401307AF17940EA01208E
:100E3000A06149465046A3692269FFF723FC08B127
:100E40000120E2E704F10C0050F829000022D4E967
:100E50000431A3FB007C01FB00C003FB0200C4E9DA
:100E6000047004F10C0151F82910A0694843A061F5
:100E700041F2240020448068A169884206D02022E3
:100E800005215046FFF71AFF0120BEE7022020701F
:100E9000A069B0F5805F01D2A06901E04FF48050F5
:100EA00085B22B4604F120020121584601F09CFE38
:100EB00044E0A069B0F5805F01D2A06901E04FF481
:100EC000805085B204F12000CDE90005D4E9047317
:100ED0003A46484600F091FC30B13A22042150468F
:100EE000FFF7ECFE012090E7D4E90420521940F10D
:100EF0000000C4E90420A069401BA06141F2440045
:100F000020448068401B41F2440121448860A0696C
:100F100020B900215046FFF77DFE0FE0A069B0F533
:100F2000805F01D2A06901E04FF4805085B22B466A
:100F300004F120020121584601F056FE002064E72A
:100F400070B50446002526468121304601F093FD08
:100F50000121304601F08FFD284670BD2DE9F0419A
:100F60000446002526460021304602F0AEF807462A
:100F70002846BDE8F0810146002070470246002067
:100F8000012904D0022903D0032903D101E002E0A2
:100F900001E000E000BF00BF704770B504460D4699
:100FA000002629462046FFF74AFC304670BD70B542
:100FB000044600252646402302228121304601F0C6
:100FC000E7FD402302220121304601F0E1FD2046E9
:100FD000FFF7C0FC284670BD70B504460D460026DC
:100FE00029462046FFF74DFC304670BD2DE9F04103
:100FF00005460C464FF000082F467868466A207870
:1010000000F06000D0B1202858D16078FE2802D0CE
:10101000FF280DD105E00122311D384601F0D9FB32
:101020000AE02846FFF7E2FD384601F0E6FB03E060
:10103000384601F0EEFB00BF00BF43E060780628B1
:101040000AD004DC012817D0032831D12FE00A2868
:1010500006D00B282CD10AE0384601F0DAFB2BE051
:10106000012206F58151384601F0B3FB24E0618886
:101070004FF4815081511FE02179384601F0FBFC8B
:10108000207900F08000802806D1217940230222B7
:10109000384601F07DFD05E02179402302223846E3
:1010A00001F076FD21792846FFF708FB04E003E014
:1010B000384601F0AEFB00BF00BF03E0384601F048
:1010C000A8FB00BF00BF4046BDE8F08101460020FC
:1010D000704700000349496860F30711014A5160F5
:1010E00070470000001002400349496860F30A217C
:1010F000014A5160704700000010024003494968EE
:1011000060F3CD21014A5160704700000010024099
:10111000012807D10749496D21F030013031054AD6
:10112000516505E00349496D21F03001014A5165DF
:101130007047000000100240052827D2DFE800F0C9
:10114000030A11181F00134A126861F30002114BC1
:101150001A601CE00F4A126861F310420D4B1A60CE
:1011600015E00C4A126861F318620A4B1A600EE02F
:10117000084A126A61F30002064B1A6207E0054A48
:10118000526A61F30002034B5A6200E000BF00BFE5
:1011900070470000001002402DE9F0410146002791
:1011A0000022002590460023002400F07DF9064629
:1011B00026B1012E12D0022E43D112E03948406DE3
:1011C000C0F3402038B13748006BC0F3406010B125
:1011D0003548086001E03548086035E0334808606C
:1011E00032E030484068C0F300482E484068C0F301
:1011F00083422C484068C0F341750DB90F2A03D1D2
:101200002801401C024400E0921CB8F1000F03D1F9
:1012100027485043086013E022484068C0F340402C
:1012200058B12048406DC0F30137B81CDFF87CC0CE
:10123000BCFBF0F05043086002E01C4850430860DB
:1012400002E01A48086000BF00BF16484068C0F3BB
:1012500003131848C45C0868E040486011484068BF
:10126000C0F302231448C45C4868E040C8600D48DD
:101270004068C0F3C2231148C45C4868E0408860FD
:1012800008484068C0F3007306484068C0F38130E6
:1012900040EA83030A48C45C8868B0FBF4F0086144
:1012A000BDE8F08100100240006CDC0200127A0000
:1012B00000093D00AA390008BA390008C2390008FF
:1012C000CA39000810B501460020094B03EB114252
:1012D000126801F01F040123A3401A4001F01F040B
:1012E0000123A3409A4200D000E0012010BD00007D
:1012F0000010024030B50024002500E0641C1120DD
:10130000FFF7E0FF012802D0B4F5405FF6D31120CB
:10131000FFF7D8FF012801D0002500E0012528466D
:1013200030BD00000349096B60F35961014A116344
:10133000704700000010024000B503460120FFF78F
:10134000F1FF0348406D63F349200149486500BD42
:101350000010024010B501290DD10E4B03EB1042D5
:10136000126800F01F040123A3401A43094C04EB48
:1013700010431A600CE0074B03EB1042126800F0B8
:101380001F040123A3409A43024C04EB10431A604C
:1013900010BD00000010024010B568B91C4B5B681E
:1013A00023F480331A4C636023461B6B23F00073D5
:1013B00003F10073236317E0154B5B6823F480335C
:1013C00003F58033124C6360012805D123465B6826
:1013D00023F40033636007E00D4B5B6823F40033B4
:1013E00003F500330A4C6360094B5B6861F3954376
:1013F000074C63600C09064B5B6864F35E73044C36
:10140000636023465B6862F3DF73636010BD0000B6
:10141000001002401348006820F00100401C1149F0
:10142000086000BF0F480068C0F340000028F9D0F2
:101430000C48406820F003000A49486000BF094892
:101440004068C0F381000028F9D1064800680649C9
:101450000840044908600020486008634FF41F00FA
:101460008860704700100240FFFFF2FE0D49496896
:1014700060F301010B4A516000BF00BF00BF00BF15
:1014800000BF00BF00BF00BF00BF00BF00BF00BF64
:1014900000BF00BF00BF00BF00BF00BF00BF00BF54
:1014A000704700000010024002484068C0F381000D
:1014B000704700000010024010B50446012C01D115
:1014C000FFF73AFF0348406D64F30820014948657F
:1014D00010BD0000001002400349C96D60F3000117
:1014E000014AD165704700000010024070B5044603
:1014F0000D4600BF8021094800F0CFFA0028F9D03E
:10150000A1B2064800F0C0FA00BF4021034800F035
:10151000C4FA0028F9D0204670BD00000038014010
:1015200010B5054905A001F0D0FF0949088002481F
:101530004860084610BD0000C01300204D61737361
:101540002053746F7261676520436F6E6669670030
:10155000FC00002000487047E4000020004870476D
:10156000DC00002010B5054905A001F0AEFF0A49D6
:10157000088002484860084610BD0000C0130020E3
:101580004D6173732053746F7261676520496E7487
:101590006572666163650000FC00002000487047CA
:1015A000EC00002010B5054905A001F08EFF0649AA
:1015B000088002484860084610BD0000C0130020A3
:1015C0004172746572790000FC00002000207047B1
:1015D00010B5054905A001F078FF094908800248C7
:1015E0004860084610BD0000C0130020415433324B
:1015F000204D6173732053746F7261676500000042
:10160000FC0000200020704710B500F013F80148DE
:1016100010BD0000F40000200146012905DA01EBAD
:10162000C100034A02EB800070470020FCE7000085
:101630001400002070B50A480468001D0568001DEC
:101640000668344454B108220649204601F069FD79
:10165000042204491031284601F063FD70BD0000EA
:10166000E8F7FF1FC20000204FF6FF710160002164
:1016700081710171042141710121C1717047F0B57F
:101680000A461588ABB29579032D01D100241AE0E2
:10169000957965B9557905F00F045579182D01D163
:1016A000036110E05579282D0DD143610BE0957948
:1016B00005F00805167906F004063543D67906F0DC
:1016C000030645EA0604DDB2A5B1002110E00125BC
:1016D0008D401D405DB105688F000F26BE40B543AB
:1016E000056005688E0004FA06F635430560491C5E
:1016F0000829ECD3FF2B15DD1B12002110E001257A
:101700008D401D405DB145688F000F26BE40B5433A
:10171000456045688E0004FA06F635434560491C6D
:101720000829ECD3F0BD0000F0B50C46104F07EBD4
:101730001062C0F30741C0F30725C6B2C5F1200708
:10174000A7EB010C4FF0FF3707FA0CF3C5F12007A8
:101750007F1AFB40CB408B4017689F4317602CB12A
:1017600006FA01FC176847EA0C071760F0BD000095
:101770000000014002F030F801F062FF01F0E8FEE5
:1017800001F0F8FE02F080F802F09AF801F08AFF0A
:1017900001F0CBFE02F0F3F802F0DAF804E002F018
:1017A000EDF802A0FEF780FDF9E7000068656C6CBB
:1017B0006F20776F726C64200A000000034623B12B
:1017C000012B03D0022B03D101E002E001E000E095
:1017D00000BF00BF0020704730B50146DDE903457A
:1017E00021B1012903D0022903D101E002E001E087
:1017F00000E000BF00BF002030BD30B50146DDE98C
:10180000034521B1012903D0022903D101E002E0FF
:1018100001E000E000BF00BF002030BD2DE9F0472F
:101820000B4614464FF0000C00BF2C4A1268C2F35E
:1018300002211D4626460A46C2F10709B9F1040FE6
:1018400002D94FF0040901E0C2F10709C84602F1CC
:101850000409B9F1070F02D24FF0000901E0A2F12B
:1018600003094F464FF0010909FA08F9A9F10109E6
:1018700009EA050909FA07F94FF0010A0AFA07FA15
:10188000AAF1010A0AEA060A49EA0A09CC4601460F
:101890006246002904DB15072E0E114D6E5407E039
:1018A00015072F0E0D4D0C3501F00F06361FAF55E5
:1018B00000BF014600290DDB00BF00BF01F01F057E
:1018C0000122AA404D09AD0005F1E025C5F800212F
:1018D00000BF00BF00BFBDE8F08700000CED00E0D6
:1018E00000E400E000BF00F00702064B19684FF665
:1018F000FF031940044B0B4343EA0221014B1960DB
:1019000000BF70470CED00E00000FA05426861F38B
:10191000CC2242607047426861F38A22426070477D
:1019200010B5436862F34D334360436861F30703C6
:1019300043600C0A436864F3D033436010BD4268CF
:1019400061F3082242607047426861F38E32426060
:101950007047426861F3492242607047026861F350
:1019600001020260704700002DE9F04700260024C4
:1019700000250027A046A146FFF796FD8246BAF152
:10198000000F06D0BAF1010F15D0BAF1020F46D1FF
:1019900015E02D48406DC0F3402040B12A48006B4F
:1019A000C0F3406018B129482949086002E029487D
:1019B0002749086037E027482549086033E0224876
:1019C0004068C0F3004720484068C0F383441E4885
:1019D0004068C0F341750DB90F2C03D12801401C9C
:1019E000044400E0A41C27B91B4860431849086060
:1019F00014E015484068C0F3404058B11248406DAB
:101A0000C0F30136B01C1349B1FBF0F0604310493C
:101A1000086003E00F4860430D49086003E00D488B
:101A20000B49086000BF00BF07484068C0F30318B7
:101A30000A4810F808900648006820FA09F004499E
:101A40000860BDE8F087000000100240006CDC0276
:101A50001000002000127A0000093D00D239000871
:101A6000042808D14FF0E021096941F004014FF04A
:101A7000E022116107E04FF0E021096921F0040143
:101A80004FF0E02211617047C1F3080242607047D5
:101A9000C26861F34D32C260704702461068084068
:101AA00008B1012070470020FCE741B9426922F4E7
:101AB00080724261426922F40072426127E001298A
:101AC0000AD1426922F4807202F580724261426951
:101AD00022F4007242611AE002290AD1426922F41A
:101AE00080724261426922F4007202F50072426122
:101AF0000DE003290BD1426922F4807202F5807255
:101B00004261426922F4007202F50072426170473C
:101B10002DE9F04385B004460F4690469946684645
:101B2000FFF73AFB1848844208D01848844205D091
:101B30001748844202D01748844201D1029E00E037
:101B4000039E06EB86004000B0FBF7F50A20B5FBCC
:101B5000F0F100FB1150052803D20A20B5FBF0F587
:101B600003E00A20B5FBF0F0451CA06865F30F0008
:101B7000A060E06868F30C30E060206969F30D3024
:101B8000206105B0BDE8F0830038014000600140ED
:101B9000006401400068014041B9C26822F400724B
:101BA000C260C26822F48062C2601AE001290AD1D0
:101BB000C26822F40072C260C26822F4806202F538
:101BC0008062C2600DE002290BD1C26822F400726B
:101BD00002F50072C260C26822F4806202F580627F
:101BE000C2607047C26861F38202C2607047C26817
:101BF00061F3C302C260704740200149088070470A
:101C00000C0000200146034A108812880A44014B48
:101C10001A8070470C000020016C21F00201016461
:101C2000016E21F002010166704710B50446206C78
:101C300020F0010020640020606420658020E064C2
:101C400001224FF41E41204600F0D8FB10BD016C6C
:101C500021F0080108310164016C21F00401091D23
:101C60000164704730B50246887A002864D18878CC
:101C7000012831D10878894B03EB8000D0F8000CA3
:101C8000C0F3801098B1087803EB8000D0F8000C06
:101C900048F68F73184040F0400040F4004040F098
:101CA00080000B787D4C04EB8303C3F8000C0B78A9
:101CB0007A4C04EB8303D3F8003C48F6BF7403EA84
:101CC000040040F4004343F080030C78734D05EBAF
:101CD0008404C4F8003CE0E00878704B03EB80001B
:101CE000D0F8000CC0F3803088B1087803EB800096
:101CF000D0F8000C48F68F73184040F4404040F094
:101D000080000B78654C04EB8303C3F8000C0B7860
:101D1000624C04EB8303D3F8003C4BF68F7403EA68
:101D2000040040F4004343F080030C785B4D05EB66
:101D30008404C4F8003CB0E00878584B03EB800002
:101D4000D0F8000CC0F3801098B1087803EB800045
:101D5000D0F8000C48F68F73184040F0400040F473
:101D6000004040F080000B784C4C04EB8303C3F838
:101D7000000C0878494B03EB8000D0F8000CC0F34E
:101D8000803088B1087803EB8000D0F8000C48F66A
:101D90008F73184040F4404040F080000B783F4C77
:101DA00004EB8303C3F8000C887801283BD1087842
:101DB0003A4B03EB8000D0F8000C48F68F731840C4
:101DC00040F0400040F4004040F080000B78334C7D
:101DD00004EB8303C3F8000C0B7804EB8303D3F804
:101DE000003C48F6BF7403EA040040F4004343F0AB
:101DF00080030C78294D05EB8404C4F8003C0B7873
:101E00002C4604EB8303D3F8003C4BF68F7403EAB3
:101E1000040040F4004343F080030C7805EB840495
:101E2000C4F8003C39E008781C4B03EB8000D0F884
:101E3000000C48F68F73184040F4404040F080009A
:101E40000B78164C04EB8303C3F8000C0B7804EBFF
:101E50008303D3F8003C48F6BF7403EA040040F45F
:101E6000004343F080030C780C4D05EB8404C4F868
:101E7000003C0B782C4604EB8303D3F8003C4BF674
:101E80008F7403EA040040F4004343F080030C78AD
:101E900005EB8404C4F8003C00BF30BD0050004096
:101EA00070B5044600230878FE4A02EB8000D0F8A3
:101EB000000C48F68F72104020F00F004A78104353
:101EC0000A78F84D05EB8202C2F8000CC87808B910
:101ED0006B150EE0C878022801D1002309E0C8780C
:101EE000032801D1430204E0C878012801D183020C
:101EF00088720878EB4A02EB8000D0F8000C48F6B4
:101F00008F72104020F4C06018430A78E54D05EB4D
:101F10008202C2F8000C887801287DD1887AE8BB5B
:101F20008A88E1480568087805EBC000DF4D2D6818
:101F300045F810200878DB4A02EB8000D0F8000C4E
:101F4000C0F3801098B1087802EB8000D0F8000C44
:101F500048F68F72104040F0400040F4004040F0DE
:101F600080000A78CF4D05EB8202C2F8000C0A7897
:101F7000CC4D05EB8202D2F8002C48F6BF7502EA80
:101F8000050080F0200040F4004242F080020D780D
:101F9000C44E06EB8505C5F8002C1FE2FFE7087864
:101FA000C04A02EB8000D0F8000C40F4807048F684
:101FB0008F72104048F2800210430A78B94D05EB49
:101FC0008202C2F8000C8A88B7480568087805EBD9
:101FD000C000B64D2D6845F81020CA88B248056883
:101FE000087805EBC000001DB04D2D6845F81020A5
:101FF0000878AC4A02EB8000D0F8000CC0F38010E7
:10200000A8B1087802EB8000D0F8000C48F68F7277
:10201000104040F0400000E078E040F4004040F024
:1020200080000A789F4D05EB8202C2F8000C087808
:102030009C4A02EB8000D0F8000CC0F3803088B1DD
:10204000087802EB8000D0F8000C48F68F72104040
:1020500040F4404040F080000A78924D05EB820247
:10206000C2F8000C08788F4A02EB8000D0F8000C10
:1020700048F68F72104040F4404040F080000A78EB
:10208000884D05EB8202C2F8000C0A7805EB82024B
:10209000D2F8002C4BF68F7502EA050040F400429E
:1020A00042F080020D787F4E06EB8505C5F8002CC6
:1020B000C878012813D10A78354605EB8202D2F898
:1020C000002C48F6BF7502EA050040F4004242F0D9
:1020D00080020D7806EB8505C5F8002C7EE10A78B4
:1020E000704D05EB8202D2F8002C48F6BF7502EA6B
:1020F000050080F0200040F4004242F080020D789C
:10210000684E06EB8505C5F8002C67E1887A002843
:1021100068D1CA8864480568087805EBC000001DCE
:10212000624D2D6845F8102008785E4A02EB800069
:10213000D0F8000CC0F3803088B1087802EB800042
:10214000D0F8000C48F68F72104040F4404040F048
:1021500080000A78534D05EB8202C2F8000C524809
:102160000568087805EBC000801D504D2D6805EB13
:1021700040020D893E2D0FDD0D8968110D7A05F0A5
:102180001F050DB9451EA8B24FF6FF7505EA80255B
:1021900045F4004515600CE00D8968100D7A05F0D6
:1021A00001050DB9451CA8B24FF6FF7505EA80255B
:1021B00015600A783B4D05EB8202D2F8002C4BF6F5
:1021C0008F7502EA050080F4805080F4005040F4DE
:1021D000004242F080020D78324E06EB8505C5F8CC
:1021E000002CFBE008782F4A02EB8000D0F8000CAE
:1021F00040F4807048F68F72104048F2800210431D
:102200000A78284D05EB8202C2F8000C8A8826481D
:102210000568087805EBC000244D2D6845F81020AE
:10222000CA8821480568087805EBC000001D1F4DCD
:102230002D6845F810201C480568087805EBC0009B
:10224000801C1A4D2D6805EB40020D893E2D0FDDD7
:102250000D8968110D7A05F01F050DB9451EA8B24C
:102260004FF6FF7505EA802545F4004515600CE042
:102270000D8968100D7A05F001050DB9451CA8B24D
:102280004FF6FF7505EA8025156007480568087850
:1022900005EBC000801D054D2D6805EB40020D8942
:1022A0003E2D05E000500040505C0040080000203A
:1022B0000FDD0D8968110D7A05F01F050DB9451E5A
:1022C000A8B24FF6FF7505EA802545F40045156074
:1022D0000CE00D8968100D7A05F001050DB9451C5B
:1022E000A8B24FF6FF7505EA8025156008783C4ACC
:1022F00002EB8000D0F8000CC0F3801098B1087891
:1023000002EB8000D0F8000C48F68F72104040F0CD
:10231000400040F4004040F080000A78304D05EB6A
:102320008202C2F8000C08782D4A02EB8000D0F837
:10233000000CC0F3803088B1087802EB8000D0F840
:10234000000C48F68F72104040F4404040F080008E
:102350000A78234D05EB8202C2F8000C0878204A67
:1023600002EB8000D0F8000C48F68F72104040F06D
:10237000400040F4004040F080000A78184D05EB22
:102380008202C2F8000C0A7805EB8202D2F8002C17
:102390004BF68F7502EA050080F4805080F40050FF
:1023A00040F4004242F080020D780D4E06EB8505A8
:1023B000C5F8002C0A78354605EB8202D2F8002CCD
:1023C00048F6BF7502EA050040F4004242F0800280
:1023D0000D7806EB8505C5F8002C00BF70BD000028
:1023E00000500040016C21F008010164016C21F0F3
:1023F000040101647047CA4342647047012A03D153
:10240000036C0B43036402E0036C8B43036470476B
:10241000F0B50346084F3F6807EB4100571C7E109C
:102420001D46002405E030F8027B2F80801CAD1C87
:10243000641CB442F7D3F0BD08000020C26C61F305
:102440000602C264C26C22F080028032C26470470D
:10245000F0B50346084F3F6807EB4100571C7E105C
:102460001D46002405E02F8820F8027B801CAD1C4F
:10247000641CB442F7D3F0BD0800002070B50446D8
:10248000002504F5037694F82402022802D00328DC
:1024900017D100E000BF7088012811D1002084F816
:1024A0002702B4F82A0220F00200A4F82A02606889
:1024B00004F50371826820469047204600F09DF99C
:1024C00003E0204600F0A5F900BF00BF284670BD1C
:1024D00070B5024601F08003F3B301F07F0402F10E
:1024E0000C0303EB44100378434C04EB8303D3F851
:1024F000003CC3F380139BB1037804EB8303D3F850
:10250000003C48F68F74234043F0400343F40043FB
:1025100043F080030478384D05EB8404C4F8003C94
:102520000378354C04EB8303D3F8003CC3F3011369
:10253000102B5DD10478304D05EB8404D4F8004CA9
:1025400048F6BF7504EA050383F0200343F4004412
:1025500044F08004057800E005E0274E06EB850591
:10256000C5F8004C44E001F07F0402F5867303EBEC
:1025700044100378204C04EB8303D3F8003CC3F3EE
:1025800080338BB1037804EB8303D3F8003C48F627
:102590008F74234043F4404343F080030478164D86
:1025A00005EB8404C4F8003C0378134C04EB83036C
:1025B000D3F8003CC3F30133B3F5805F18D104783E
:1025C0000D4D05EB8404D4F8004C4BF68F7504EAEE
:1025D000050383F4805383F4005343F4004444F030
:1025E00080040578044E06EB8505C5F8004C00BF55
:1025F0000023C37270BD00000050004010B50446B7
:102600002068FFF709FB10BD70B505460E4606F0C1
:102610007F0105F10C0000EB4114002E44D195F828
:10262000200202284CD1608B2189884211DD608B09
:102630002189401A6083608B2189884201DA608B8E
:1026400000E02089034600212846626900F006FB6D
:1026500036E0208B2189884217D1A08B21898842BE
:1026600013DBA08BB5F8221288420EDA00202083FB
:1026700000231A461946284600F0F0FA00231A46AD
:102680003146284600F0B0FA1AE06868C06838B1F0
:1026900095F82402032803D16868C1682846884752
:1026A000284600F08AF80BE06868406940B195F868
:1026B0002402032804D168683146426928469047BD
:1026C00070BD2DE9F04104460D4616461F46DDF863
:1026D00018806660A7602560012084F824022046E7
:1026E00000F0E1F92068FFF7A0FABDE8F08170B5CD
:1026F00005460E4606F07F0105F5867000EB411495
:1027000026BB95F8200203282CD1608B21898842B2
:1027100011DD608B2189401A6083608B218988429A
:1027200001DA608B00E02089034631462846626961
:1027300000F05AFA16E06868006918B16868016923
:1027400028468847284600F058F80BE068688069FA
:1027500040B195F82402032804D1686831468269A3
:102760002846904770BD70B504460D4604F50571C6
:1027700004F5037000F076FE012084F8200240F298
:102780001220005BA4F8220294F80C0200F01F0053
:1027900020B1012806D002280CD107E0204600F025
:1027A00043F808E0204600F0DBFC04E0204600F09F
:1027B0007BF800E000BF00BF70BD10B504460520E7
:1027C00084F8200200231A461946204600F00CFA2D
:1027D00010BD2DE9F04105460E46144605F10C07E3
:1027E000BC837C83022085F82002234632460021E8
:1027F000284600F033FABDE8F08110B50446042005
:1028000084F8200200231A461946204600F026FAD2
:1028100010BD10B504460021204600F0DFFD8021E8
:10282000204600F0DBFD10BD70B50446002504F520
:102830000376307800F0600038B1606804F5037109
:10284000826820469047284670BD40F20D20005D0A
:102850000A2822D2DFE800F00509210D21111521F7
:10286000191D204600F03BFC1BE02046FFF706FE4A
:1028700017E0204600F098FD13E0204600F006FD2A
:102880000FE0204600F093FB0BE0204600F064FBD5
:1028900007E0204600F024FD03E02046FFF7B9FFE3
:1028A00000BF00BF2846CFE72DE9F04104464FF0B6
:1028B000000804F503773D79387800F0600040B1F6
:1028C000606804F503718268204690474046BDE881
:1028D000F081787820B101284DD0032873D173E0BE
:1028E00094F82402022802D003283ED11FE005F00C
:1028F0007F0018B12946204600F070FD05F08000E9
:1029000030B105F07F0104F10C0000EB411605E049
:1029100005F07F0104F5867000EB41160020B081C0
:10292000022206F10C012046FFF753FF21E005F0DB
:10293000800030B105F07F0104F10C0000EB41167E
:1029400005E005F07F0104F5867000EB4116F07A92
:10295000012801D1B08101E00020B081022206F1FE
:102960000C012046FFF735FF03E02046FFF751FF3B
:1029700000BF00BF54E094F82402022802D00328CC
:102980001BD107E02DB1802D03D02946204600F051
:1029900025FD16E0788878B905F07F0048B1294612
:1029A0002046FFF795FD606804F5037182682046B4
:1029B00090472046FFF721FF03E02046FFF729FF5D
:1029C00000BF00BF2CE027E094F82402022802D0C8
:1029D00003281BD107E02DB1802D03D029462046C6
:1029E00000F0FCFC16E0788830B92DB1802D03D0C2
:1029F0002946204600F0F2FC606804F50371826805
:102A0000204690472046FFF7F8FE03E02046FFF7F8
:102A100000FF00BF00BF03E02046FFF7FAFE00BF43
:102A200000BF404653E710B504462068FFF70FF992
:102A300010BD10B50446A07A80B9A078012806D14F
:102A4000A088B8B92089FFF7DDF8A08012E0E088FF
:102A500080B92089FFF7D6F8E0800BE0A08818B98C
:102A60002089FFF7CFF8A080E08818B92089FFF708
:102A7000C9F8E08010BD70B504460D4605F0800031
:102A800030B105F07F0104F10C0000EB411605E0C8
:102A900005F07F0104F5867000EB41163146206891
:102AA000FFF7E0F870BD0146002000BF2BE001F108
:102AB0000C0202EB4012107001F10C0202EB40120A
:102AC0005070012301F10C0202EB401293700023BD
:102AD00001F10C0202EB4012138101F10C0202EB36
:102AE0004012536101F10C0202EB4012D38101F15B
:102AF0000C0202EB4012938001F10C0202EB401237
:102B0000D380421CD0B20828D1DB00202AE001F596
:102B1000867202EB4012107001F5867202EB4012D1
:102B20005070002301F5867202EB4012937001F59C
:102B3000867202EB4012138101F5867202EB40129D
:102B4000536101F5867202EB4012D38101F5867262
:102B500002EB4012D38001F5867202EB40129380A3
:102B6000421CD0B20828D2DB70472DE9F041044660
:102B70002668002705E005F00F073946204600F0DB
:102B8000FDF8756C05F400400028F4D1BDE8F08133
:102B90002DE9F04705460E4617469846D5F80090B1
:102BA00006F0800040B906F07F0105F5867000EB65
:102BB00041140020A07007E006F07F0105F10C0031
:102BC00000EB41140120A07008F101004FF6FE71E6
:102BD00008402081E7702046FFF72BFF214648463A
:102BE000FFF75EF9BDE8F0872DE9F0410546144690
:102BF00001F07F0705F5867202EB4710002644615D
:102C0000C38100220282C2890789BA4204DD068993
:102C1000C289921BC28102E01E460022C2814F0679
:102C2000DFF834C00CEBD757D7F8007C4BF68F7C1D
:102C300007EA0C0282F4805282F4005242F4004708
:102C400047F080074FEA416CDFF80C8008EBDC5C52
:102C5000CCF8007CBDE8F081005000402DE9F04741
:102C600007460D469146984605F07F0107F10C0096
:102C700000EB41140026D7F800A0C4F81490A4F883
:102C80000E8000202082E0892189884204DD268987
:102C9000E089801BE08102E046460020E081268337
:102CA000A07A80B9A18832466069FFF7D1FB30482D
:102CB000016805F07F0001EBC000801C2D49096808
:102CC00041F810603AE005F07F005AF82000C0F3A8
:102CD000801080B12648016805F07F0001EBC0003C
:102CE000801D2449096841F81060E1883246606916
:102CF000FFF7AEFB0FE01E48016805F07F0001EB17
:102D0000C000801C1B49096841F81060A188324648
:102D10006069FFF79DFB6806174901EBD050D0F8BA
:102D2000000C48F68F71084040F4404040F08000AD
:102D30006906114A02EBD151C1F8000C69060E4A2E
:102D400002EBD151D1F8001C48F6BF7201EA020033
:102D500080F0100080F0200040F4004141F080013C
:102D60006A06054B03EBD252C2F8001CBDE8F0879F
:102D7000505C004008000020005000402DE9F04762
:102D800006460D46D6F8009059F8258008F08000D8
:102D900000283FD006F10C0000EB45146B4901EB15
:102DA0008500D0F8000C48F60F710840674A02EB26
:102DB0008501C1F8000C6648006800EBC500801C66
:102DC0006449096831F81000C0F309002082218AA3
:102DD000606908446061E08900B125B92946304640
:102DE000FFF712FC05E0E389294630466269FFF7E8
:102DF00035FF96F8240202280BD196F82602002807
:102E000007DD96F826123068FFF718FB002086F8D9
:102E1000260298E006F5867000EB451408F4006081
:102E2000F8B14B48006800EBC500801D49490968AE
:102E300031F81000C0F309002082228AE18806F5EB
:102E40000570FFF7E5FA42485038006840F68F7188
:102E500008403F495039086029463046FFF783FC57
:102E600071E008F4004000286DD0384901EB85007E
:102E7000D0F8000C40F68F710840344A02EB85010F
:102E8000C1F8000CA07A80B93148006800EBC50099
:102E9000801D3049096831F81000C0F30907E18846
:102EA0003A466069FFF7B4FA36E008F4804080B132
:102EB0002748006800EBC500801C2649096831F8E6
:102EC0001000C0F30907A1883A466069FFF7A0FA2D
:102ED0000FE01F48006800EBC500801D1D49096810
:102EE00031F81000C0F30907E1883A466069FFF73E
:102EF0008FFA164901EB8500D0F8000C48F68F7167
:102F0000084040F0400040F4004040F080000F4A8C
:102F100002EB8501C1F8000C208A384420826069E8
:102F200038446061E08918B12089B84200DC25B9D5
:102F300029463046FFF7DBFB05E0E38929463046AA
:102F40006269FFF751FEBDE8F087000000500040C5
:102F5000505C00400800002070B50446002504F5D0
:102F60000376F088012803D02046FFF752FC1CE0CE
:102F700094F82402022802D0032811D109E000208D
:102F800084F82802012204F50A712046FFF721FC8B
:102F90000AE0012204F229212046FFF71AFC03E08F
:102FA0002046FFF736FC00BF00BF284670BD2DE964
:102FB000F04704460027B846002540F20E20005B8B
:102FC0000612082E61D2DFE806F06004090E606088
:102FD000575BA1680868804705465BE0A168886880
:102FE0008047054656E040F20E2010F80490B9F1F3
:102FF000030F23D009DCB9F1000F10D0B9F1010F94
:1030000012D0B9F1020F2CD113E0B9F1040F1AD08C
:10301000B9F1050F1CD0B9F1EE0F22D11DE0A16866
:1030200008698047054625E0A1684869804705464C
:1030300020E0A1688869804705461BE0A168C8694F
:103040008047054616E0A168486A8047054611E0BA
:10305000A168086A804705460CE02046FFF7D9FBC7
:1030600008E0606804F5037182682046904738469E
:10307000BDE8F08700BF0DE02046FFF7CAFB09E07E
:103080002046FFF7C6FB3846F2E72046FFF7C1FBB4
:103090003846EDE700BFB5B12888A0B140F2122054
:1030A000005B80B1298840F21220005B814201DA86
:1030B000288802E040F21220005B8046424620460B
:1030C0006968FFF786FB3846D2E710B5024601F083
:1030D0007F0402F5867000EB4413188A10BD70B5AA
:1030E0000446002594F82402022802D0032811D1B6
:1030F00000E000BF94F8270228B1B4F82A0240F09B
:103100000200A4F82A02022204F22A212046FFF734
:1031100060FB03E02046FFF77CFB00BF00BF2846B2
:1031200070BD30B50B46002100BF16E00A24B4EB99
:10313000107F05D9302404EB107403F8114005E02A
:10314000412404EB10740A3C03F8114000010025EF
:103150004C00641C1D554C1CE1B29142E6DB30BDB5
:1031600070B50446002504F5037694F8240201287E
:1031700004D0022803D0032810D101E000BF00BF13
:10318000606804F503718268204690470546F08820
:1031900018B915B92046FFF730FB03E02046FFF7CA
:1031A00038FB00BF00BF284670BD2DE9F04107463F
:1031B0003E68746C356C04F4004010B13846FFF77B
:1031C000D4FC04F4806038B14FF480613046FFF7DE
:1031D00012F9384600F037F804F4007050B105F4E5
:1031E000007038B14FF400713046FFF704F93846EB
:1031F00000F04CF904F4807038B105F4807020B10F
:103200004FF480713046FFF7F6F804F4006050B1D7
:1032100005F4006038B14FF400613046FFF7EBF879
:10322000384600F03DF904F4805050B105F4805068
:1032300038B1384600F067F94FF480513046FFF757
:10324000DAF8BDE8F08110B50446FEF7D5FC20465B
:10325000FFF729FC4023002211462046FFF798FC87
:103260004023002280212046FFF792FC00212068A5
:10327000FFF7E4F8012084F824026068006A20B1B6
:1032800060680121026A2046904710BD2DE9F04197
:103290000446002704F50375A888D0B9E888C0B9AA
:1032A000A87800F07F0694F82402032803D1204672
:1032B000FFF7AFFA10E084F826621EB1022084F80E
:1032C000240202E0012084F824022046FFF795FA48
:1032D00002E02046FFF79DFA3846BDE8F081000085
:1032E00070B50446002604F50375A8782D490870CA
:1032F000A888002850D1E88800284DD194F82402ED
:10330000022802D0032842D115E02648007870B187
:103310002448007884F82902032084F82402606895
:103320000168204688472046FFF767FA02E02046FA
:10333000FFF763FA2FE01B48007870B9022084F889
:1033400024021848007884F8290260684168204601
:1033500088472046FFF751FA18E094F829021149EE
:10336000097888420FD060684168204688470D4838
:10337000007884F829026068016820468847204662
:10338000FFF73BFA02E02046FFF737FA03E020465A
:10339000FFF73FFA00BF02E02046FFF73AFA304657
:1033A00070BD00003401002070B50446002504F50E
:1033B0000376708801280BD184F82702606804F531
:1033C00003718268204690472046FFF716FA02E014
:1033D0002046FFF71EFA284670BD000070B5024671
:1033E00001F08003E3B101F07F0402F10C0303EB71
:1033F000441004781A4D05EB8404D4F8004C48F6C8
:10340000BF7504EA050383F0100343F4004444F05D
:1034100080040578124E06EB8505C5F8004C1CE0CB
:1034200001F07F0402F5867303EB441004780C4D21
:1034300005EB8404D4F8004C4BF68F7504EA0503C1
:1034400083F4805343F4004444F080040578044E30
:1034500006EB8505C5F8004C00BF0123C37270BDA3
:10346000005000400A7802704A7842708B78CA781F
:1034700003EB022242800B794A7903EB022282801D
:103480008B79CA7903EB0222C280704710B50446DB
:103490006068C06918B16068C1692046884710BD7E
:1034A00010B5044694F8240284F82502042084F818
:1034B00024022046FFF7B7FA6068006A20B160680E
:1034C0000221026A2046904710BDF0B50346002055
:1034D00002241A460CE0451CA8B212F8017B2546CE
:1034E000661CB4B24F5500272546661CB4B24F5532
:1034F0001578002DEFD1022505EB4005A8B2087024
:1035000003254D70F0BD10B504462068FEF76AFF34
:1035100094F8250284F824026068006A20B160688B
:103520000321026A2046904710BD10B541F62C7069
:10353000FCF7E0FF4FF4FA50FCF7E2FF41F654705D
:10354000FCF7E4FF01210220FCF7BCFF10BD0000E6
:1035500010B501210548FEF7E7F80548406820F05E
:10356000200020300249486010BD000002031030E6
:10357000002004E070B50320FEF7B4F9FCF784FFE7
:10358000054600221146FCF71BFF044621466FF05A
:103590000B00FCF781FFFCF777FF05460022114680
:1035A000FCF70EFF044621466FF00A00FCF774FF9B
:1035B000FCF76AFF054600221146FCF701FF0446AE
:1035C00021466FF00900FCF767FFFCF75DFF054639
:1035D00000221146FCF7F4FE044621466FF0040079
:1035E000FCF75AFFFCF750FF054600221146FCF796
:1035F000E7FE044621466FF00300FCF74DFFFCF7A1
:1036000043FF054600221146FCF7DAFE0446214638
:103610006FF00100FCF740FFFCF736FF0546002283
:103620000F21FCF7CDFE044621464FF0FF30FCF79A
:1036300033FF002211464A20FEF7F0F870BD00006B
:1036400010B501211448FDF785FE01214FF4C0108B
:10365000FDF780FE01211148FDF77CFE01210F4896
:10366000401CFDF777FE01210C48801CFDF772FE1F
:1036700001210A48C01CFDF76DFE012107480C30EE
:10368000FDF768FE012105481430FDF763FE0121B6
:103690000348FDF75FFE10BD0B0014000200180088
:1036A00017001C001CB56846FDF7DEFF02208DF8F0
:1036B000070000208DF8040008208DF80600102077
:1036C000009004208DF8050069463F48FDF7D7FFBC
:1036D00002208DF8070000208DF8040008208DF8E6
:1036E00006002020009004208DF805006946364829
:1036F000FDF7C5FF02208DF8070000208DF80400BB
:1037000008208DF806004020009004208DF8050068
:1037100069462D48FDF7B3FF02208DF80700002011
:103720008DF8040008208DF8060080200090042009
:103730008DF8050069462448FDF7A1FF02208DF8A9
:10374000070000208DF8040008208DF806001020E6
:10375000009004208DF8050069461C48FDF78FFF96
:1037600002208DF8070000208DF8040008208DF855
:1037700006002020009004208DF8050069461348BB
:10378000FDF77DFF01211248FDF7CEFF0022114613
:103790001048FEF7C5F800210E48FEF7DAF80021C0
:1037A0000C48FEF7D1F800210A48FEF7B4F80121D1
:1037B0000848FEF7ABF803210648FEF7CFF80121D1
:1037C0000448FEF7BCF81CBD000801400010014091
:1037D00001040C2C0034024010B5FDF71BFE012142
:1037E0000420FDF7A9FC00BF2048FDF76BFD012870
:1037F000FAD101210846FDF79FFC00BFFDF77AFDD5
:103800000028FBD001210020FDF796FC00BF01201D
:10381000FDF758FD0128FAD101223B210020FDF7D8
:10382000BBFD01210220FDF787FC00BF1920FDF739
:1038300049FD0128FAD10020FDF74CFC0420FDF7DA
:103840005DFC0420FDF750FC0120FDF761FC022027
:10385000FDF70CFE00BFFDF727FE0228FBD100207C
:10386000FDF756FCFEF780F810BD000001002400B3
:1038700010B500F001F810BD02480068401C014975
:10388000086070470000002010B586B0002401A831
:10389000FDF782FC0298C4080020FEF7E1F84FF41F
:1038A0007A70B4FBF0F0401E4FF0E0214861002038
:1038B00088610846006940F00300086106B010BD49
:1038C0001CB56846FDF7D0FE02208DF807000020E9
:1038D0008DF8040008208DF8060080010090042077
:1038E0008DF8050069461848FDF7C9FE02208DF8DD
:1038F000070000208DF804008DF806004FF480606A
:10390000009004208DF8050069460F48FDF7B7FECA
:1039100000231A464FF4E1310C48FEF7F9F8012173
:103920000A48FEF764F901210848FEF75BF9002117
:103930000648FEF731F900210448FEF7B6F80121E8
:103940000248FEF7A5F81CBD000801400038014000
:1039500008B50020054B064A064900900648FEF7C8
:10396000B0FE0548FEF74AFE08BD000060000020DA
:1039700038000020005C004038010020704710B57E
:103980000120FDF7A9FD0120FDF796FD10BD000007
:1039900010B50248FFF709FC10BD000038010020F7
:1039A0004FF04070E1EE100A704700000000000088
:1039B00000000102030406070809000000000102DC
:1039C0000304000000000102030402040608020CC4
:1039D00008100000000000000000010203040607B8
:1039E00008090000043A0008000000203801000027
:1039F000C0010008C03A000838010020E8190000A2
:103A00001C02000891126043404023127A12803356
:103A1000011F1E4154333220012E4469736B30095B
:103A2000590117322E3030AF0F1B0841041AED0434
:103A30001A77041A5D041A9B041AD90413CD101BBB
:103A4000087D0813680314205D15140805161B086B
:103A500055081ACD041A9D041AA5041AD1041A098E
:103A6000181A65081A2104131201320216403C2E5E
:103A70002057260201020301140902202008010137
:103A800004C0320904180A0208065005070581021D
:103A9000A62C07050107071A040309041A033212AA
:103AA00022883320201A9C081946111ABC08321AA1
:103AB0001AC008011012705205720AF921A20600FC
:040000050800018569
:00000001FF
